:020000040800F2
:1000000000500020CD290008890C00088D0C000844
:10001000910C0008950C0008990C000800000000E5
:10002000000000000000000000000000A10C00081B
:100030009D0C000800000000A50C0008590D0008E8
:10004000A90C0008AD0C0008B10C0008B50C0008A4
:10005000B90C0008BD0C0008C10C0008C50C000854
:10006000C90C0008CD0C0008D10C0008D50C000804
:10007000D90C0008DD0C0008E10C0008E50C0008B4
:10008000E90C0008ED0C0008F10C0008F50C000864
:10009000510D0008F90C0008FD0C0008010D0008C6
:1000A000050D0008090D00080D0D0008110D0008D0
:1000B000150D0008190D00081D0D0008210D000880
:1000C000250D0008290D00082D0D0008310D000830
:1000D000350D0008390D00083D0D0008410D0008E0
:1000E000450D0008490D00084D0D000800000000F6
:1000F0000000000000000000000000000000000000
:0C01000000000000000000005FF800009C
:100110000020704718467047002070470120704744
:1001200010B51046144600213C2205F013FC4FF494
:1001300000536360002010BD0A4A10B513680BB964
:10014000094B1360074B6A4618684118914206D95B
:1001500005F064FB0C2303604FF0FF3000E01960F2
:1001600010BD00BF04060020000B002010B505F0F4
:1001700055FB162303604FF0FF3010BD0000000058
:10018000014B03221A60704714060020044B054AF5
:100190009B7A0BB1052300E001231360704700BF79
:1001A000D40A002014060020124B10B5196804333D
:1001B000186804331C68D9B10F4AC1F307231371BF
:1001C000C1F3074393710B0E1372C0F3072313732C
:1001D000C0F307439373030E1374C4F3072313751B
:1001E000C4F307439375230E917090729474137641
:1001F00010BD00BFE8F7FF1F10000020024A13687F
:1002000001331360704700BF700A00202DE9F04FE2
:100210004FF0824191B005F03BF90446214605F0CC
:1002200037F92146054605F033F92146064605F023
:100230002FF92146824605F02BF92146834605F029
:1002400027F921460F9005F023F921460E9005F07D
:100250001FF90D90204604F037FD55A3D3E9002384
:1002600004F086FDCDE90A01284604F02DFD52A3D5
:10027000D3E9002304F07CFD80463046894604F033
:1002800023FD4FA3D3E9002304F072FD0646504638
:100290000F4604F019FD4CA3D3E9002304F068FDD8
:1002A000CDE90801584604F00FFD49A3D3E9002326
:1002B00004F05EFD82460F988B4604F005FD46A3D0
:1002C000D3E9002304F054FDCDE906010E9804F0B3
:1002D000FBFC43A3D3E9002304F04AFDCDE904016C
:1002E0000D9804F0F1FC40A3D3E9002304F040FD95
:1002F000CDE9020121460D9805F0CAF804F0E4FCAE
:100300003BA3D3E9002304F033FDCDE90001DDE98F
:100310000A0104F05FFF49460446404604F05AFFD4
:100320000146204604F0ACFF39460446304604F04E
:1003300051FF0146204604F0A3FF0446DDE9080111
:1003400004F048FF0146204604F09AFF594604464F
:10035000504604F03FFF0146204604F091FF04465A
:10036000DDE9060104F036FF0146204604F088FF6F
:100370000446DDE9040104F02DFF0146204604F0A7
:100380007FFF0446DDE9020104F024FF0146204618
:1003900004F076FF0446DDE9000104F01BFF01468E
:1003A000204604F06DFF11B0BDE8F08FAFF3008080
:1003B0004D9AAB8B80AF993F9FE486786C19753E60
:1003C0002AF3DFFB8D33F1BD5CAB7093C867373D1B
:1003D000784D308308516CBCF16000DFF084923BB3
:1003E0002EC61CA4B950ABBA97BE17A51174B53967
:1003F000E5C53AE4ADFCABB8014B1868704700BFE7
:100400000806002082B00190019BDB000193019A55
:10041000531E0193002AFAD102B07047034B586073
:10042000024B5B68002BFBD1704700BF0806002021
:10043000044A136801331360536813B15368013BD6
:1004400053607047080600202DE97343DFF8E88009
:100450003C20012101AD01F0CBFC4FF03E03ADF893
:100460000430404600232946304E8DF807308DF881
:10047000063001F0D5F84FF4BC430324ADF8043046
:100480003046102329468DF807304FF018098DF8B3
:10049000064001F0C5F84AF200033046294604261A
:1004A000ADF804308DF807908DF8064001F0B8F8EB
:1004B0004FF4005329461E48ADF804308DF807600C
:1004C0008DF8064001F0ACF84FF001034046294694
:1004D000ADF804308DF807608DF8064001F0A0F803
:1004E0004FF0800340462946ADF804308DF8076090
:1004F0008DF8064001F094F84FF04003404629463D
:10050000ADF804308DF807908DF8064001F088F8BA
:10051000142308482946ADF804608DF806408DF88C
:10052000073001F07DF8BDE87C8300BF000C01407E
:10053000001001400014014000080140014610B5C0
:1005400009480122052300F00FFF0748012100F0B0
:10055000E9FE0548022100F0FFFF0028F9D002481B
:1005600000F05AFF10BD00BF0024014030B501214A
:1005700087B04FF4007001F03BFC01AD164801F06C
:100580000BF8284600F08EFE012400224FF4602371
:100590001148294601928DF808208DF8092003930F
:1005A00004928DF8144000F059FE0B48214600F0EB
:1005B00083FE094800F0A2FE074800F0A5FE0128CE
:1005C000FAD0054800F0A4FE034800F0A7FE012879
:1005D000FAD007B030BD00BF0024014007B54FF08E
:1005E0000060002101F004FA142301228DF8043088
:1005F00001A800238DF805208DF806308DF807201E
:1006000001F066F90EBD00BF10B501F0CBFA4FF452
:10061000803001F0EDFA01F04BFC1B4B0128044641
:10062000187024D1102000F0EFFF022000F0D4FF5A
:10063000002001F02BFB002001F03CFB4FF4806018
:1006400001F02EFB4FF480304FF4E01101F0FCFA82
:10065000204601F003FB392001F014FC0028FAD0F9
:10066000022001F001FB01F009FB0828FBD100206A
:1006700001F038FB01214FF4000001F0C7FB02201C
:10068000012101F0C3FB10BD5C0A002010B520B1B0
:100690000448042101F036F803E00248042101F087
:1006A0002FF810BD001401402DE9F04F0026A5B031
:1006B0001E961996FFF7A8FFFFF790FF42F2283029
:1006C00001F04EFD012001F065FD012001F04EFD1D
:1006D000FFF7BAFE01214FF4804001F097FBAC49CF
:1006E0004FF482724A804FF001034FF400724FF0D2
:1006F00000050B814A814FF038034FF007028B81D0
:100700000A820D808D80CD80CD81A24801F000FC51
:100710000021A04801F082FC01219E4801F020FC4C
:10072000FFF724FF9C489D494FF4807204F0FEF8C7
:100730009B494DF2D8634FF00C020B804A808D80AC
:10074000CD80984801F04AFD9749984C4FF07003CE
:100750004FF001020B808A804D80CD80914801F0DE
:100760004FFD204601F0D0FD4FF001034FF0020293
:100770006380A280E3808B4821462581A57202F028
:1007800069F80821874801F07BFF6021854801F066
:100790002BFE0621834801F081FF03F06DFEA220AD
:1007A00003F0E6FDAF2003F0E3FDA42003F0E0FD3D
:1007B0000C2003F057FE7E49774804F03DF802F024
:1007C0008DFD03F0FFFD7B4B03961A6809921A68B2
:1007D0001B68794B0A922293784B21962093002331
:1007E0000793089301E0CDF824A00027BB46BA4642
:1007F000B9460B970120FFF7A1FE80460220FFF7C4
:100800009DFE04460320FFF799FE06460420FFF7ED
:1008100095FE05460520FFF791FE0B9AC4EB0903F0
:100820000137424403EB0609B7F57A7FC4EB0A03AC
:10083000C4EB0B040B9203EB050A04EB000BD9D1BC
:10084000484604F02FFA50A3D3E9002304F0BAFB82
:1008500004F0C0FCFFF7DAFC03990446049804F0A6
:100860000FFD214604F00CFD4FF07C5104F010FE0A
:100870000490504604F016FA43A3D3E9002304F091
:10088000A1FB00224E4B04F0C1F804F0A3FCFFF7DB
:10089000BDFC03990446059804F0F2FC214604F0DF
:1008A000EFFC4FF07C5104F0F3FD0590584604F046
:1008B000F9F935A3D3E9002304F084FB0022414B6E
:1008C00004F0A2F804F086FCFFF7A0FC03990446AC
:1008D000069804F0D5FC214604F0D2FC4FF07C5180
:1008E00004F0D6FD334B0A9AD3F800A01B6806909B
:1008F0009B1AB3F57A7F40F260810B9804F0D2F92D
:1009000021A3D3E9002304F05DFB00222E4B04F069
:100910002FFA09F05BFC2D4B002204F029FA04F0B9
:1009200059FC0599814604F0A9FC1F9022981F9953
:1009300004F0AEFD1B902198199904F0A9FD1C90BC
:10094000209C1F981E9904F099FC0146204604F053
:100950009FFD1A901B981C991A9C04F091FC21464B
:1009600004F08EFC1D901F9B19491E931D9804F0E6
:100970004BFF08B1632735E01D98002104F026FFE6
:1009800040B300272EE000BF0000000000408F4071
:10099000780A002000380040980A0020000C01402E
:1009A0005E0A002000040040660A00208A0A002037
:1009B0000800002008060020000020410000164327
:1009C0000000284000001C4000008E3F0000144042
:1009D0000000C6421D9804F077F909F0F7FB04F017
:1009E000D9FBC7B2984B994853F827100DF14B0625
:1009F000C1F55641D83189B201F064FE0A9B0498D2
:100A000003F57A730A9304F05FF9DDF87C800446FD
:100A100040460D4604F058F92B46CDE90001224628
:100A20008B49304604F0EEFF06200021324603F0E9
:100A3000C1F9059804F048F90B460246854930464D
:100A400004F0E0FF06200121324603F0B3F90698D6
:100A500004F03AF90B4602467F49304604F0D2FFD3
:100A600032460620022103F0A5F9484604F02CF98D
:100A7000DDF86C80044640460D4604F025F92B460F
:100A8000CDE9000122467549304604F0BBFF3246ED
:100A90000620032103F08EF9039804F015F9DDF820
:100AA0007080044640460D4604F00EF92B46CDE911
:100AB000000122466A49304604F0A4FF06200421C2
:100AC000324603F077F9099A1A98C2EB0A0404F047
:100AD000FBF82246CDE900016249304604F092FF5E
:100AE00006203246052103F065F91D9804F0ECF864
:100AF0003A46CDE900015C49304604F083FF062008
:100B00003246014603F056F9584B04981B68584981
:100B100007238DF8323004F0BBFC04F0D5F809F05F
:100B200055FB04F037FB0DF1320423AD0222239074
:100B30002946601C04F078FE05984D4904F0A8FC95
:100B400004F0C2F809F042FB04F024FB02222390D7
:100B50002946E01C04F068FE0698454904F098FC1C
:100B600004F0B2F809F032FB04F014FB02222390E7
:100B70002946601D04F058FE3D49484604F088FCB3
:100B800004F0A2F809F022FB04F004FB29462390AC
:100B9000E01D022204F048FE092220464FF4807135
:100BA0008DF83B7002F0B6FC0120092102F0C0FE76
:100BB000012002F08FFD03F005FC2E48012100F01A
:100BC0008BFD08B9294B1B68079B1BB1002B3FF419
:100BD0000AAE10E0284803F0F5FD2748CC2103F0C9
:100BE000A1FD2548442103F09DFD204B01221B68F7
:100BF00007920893F7E51D4B089A1B689B1AB3F5FB
:100C00007A7FFFF4F0AD1C4803F0DCFD1A481B4965
:100C100003F0ACFDBE21184803F084FD164803F034
:100C20002FFD0446144803F02BFD44EA002004F095
:100C300039F8134B002204F09BF804F0CBFA0023A0
:100C400003900793CFE500BF6CA2000800040040AA
:100C5000E0AD0008F5AD000801AE00080DAE0008DB
:100C600021AE000835AE000848AE00080806002096
:100C70000000C84200080140980A00200800002037
:100C80000000B03FAFF30080704700BFFEE700BF39
:100C9000FEE700BFFEE700BFFEE700BF704700BFF2
:100CA000704700BF704700BF704700BF704700BF6C
:100CB000704700BF704700BF704700BF704700BF5C
:100CC000704700BF704700BF704700BF704700BF4C
:100CD000704700BF704700BF704700BF704700BF3C
:100CE000704700BF704700BF704700BF704700BF2C
:100CF000704700BF704700BF704700BF704700BF1C
:100D0000704700BF704700BF704700BF704700BF0B
:100D1000704700BF704700BF704700BF704700BFFB
:100D2000704700BF704700BF704700BF704700BFEB
:100D3000704700BF704700BF704700BF704700BFDB
:100D4000704700BF704700BF704700BF704700BFCB
:100D500010B500F015F810BD10B5FFF769FB10BD18
:100D600010B506484FF48271022202F0EDFB01201B
:100D70004FF4405102F06EFC10BD00BFBC0A0020D1
:100D80003649374A0B6810B59BB21380354B128831
:100D90001B88134013F4806F05D04FF6FF330B60B0
:100DA000314B5B6898472E4B2E4A1B88118801EA0D
:100DB000030313F4005F03D0284B4DF6FF721A6053
:100DC000274B1B8801EA030313F4805F06D0234BF3
:100DD0004EF6FF721A60002000F086F9204B1A8848
:100DE000204B1B88134013F4006F0CD01F4B1B7853
:100DF00013B100F0BFF902E0022000F075F9174BC3
:100E00004FF2FF721A60164B164A1B88118801EACE
:100E1000030313F4007F08D0104B4FF6FF521A6003
:100E2000134A13780133DBB213700D4B1B8801EAB0
:100E3000030313F4807F06D0084B4FF6FF621A605D
:100E4000072000F051F9064B1A88064B1B88134007
:100E500013F4004F01D002F09FFA10BD445C004033
:100E6000BE0A0020F80A0020A4000020FC00002098
:100E700010060020014B04221A607047140600205F
:100E8000704700BF704700BF062810B511D1144B42
:100E90001A68137803F07F03012B0AD1537943B901
:100EA0009378222B01D10F4A0DE0212B15D10E4A48
:100EB00009E00B4B1B681B7803F07F03212B0CD13F
:100EC00003280AD1094A064B4FF000011B68002095
:100ED0009A6159829047002000E0022010BD00BFB7
:100EE000F40A0020610F0008510F0008350F0008B8
:100EF00001B900B102207047034B00201B68DA786B
:100F0000024B1A60704700BFF40A0020C00A00209C
:100F100010B5074B1B681B7803F07F03212B04D10E
:100F20000B2802D1FFF7E8FF00E0022010BD00BF50
:100F3000F40A002028B9044B4FF001011B68198204
:100F400000E00248704700BFF40A0020C00A0020F9
:100F500010B5024901F080FE10BD00BF6400002002
:100F600010B5024901F078FE10BD00BF6C000020F2
:100F700010B5064B1B68DB78042B01D9002004E078
:100F8000034901EBC30101F067FE10BDF40A002024
:100F90007400002010B5024901F05EFE10BD00BFD4
:100FA0009400002010B5024901F056FE10BD00BFAC
:100FB0009C00002010B5064B1B689B7A33B1054B93
:100FC00005221A600448012100F0ACF910BD00BFF1
:100FD000F40A00201406002000240140274B10B51D
:100FE0001A68274B0024DB799472D472537220461E
:100FF00002F0E6FA20464FF4007102F0FFFA2046B4
:10100000102102F011FB2046182102F065FC582146
:10101000204602F051FC204602F092FB194B20467C
:1010200093F86C1002F0A6FC204602F061FB012050
:101030004FF4C06102F0E2FA01204FF4807102F037
:101040003BFC01204FF4827102F046FC012002219A
:1010500002F06EFC0120022102F08CFC01204FF412
:10106000405102F0F7FA0120202102F0DDFA064B90
:1010700001221A60204601F0FFFD10BDF40A002095
:101080000EA40008640000201406002010B5FFF72D
:101090008BF8084B00241B689C7200F08FF8064BFD
:1010A0004FF43F421C60054B1A80054B1A60054BFC
:1010B0001C6010BDF40A0020445C0040F80A0020C7
:1010C000405C00401406002010B5064C4FF6FB7340
:1010D000226802EA03032360FFF758F84FF43F4306
:1010E000236010BD405C0040072818BF1F4B10B59F
:1010F0001E4C18BF18702378052B33D8DFE803F097
:1011000003060A0E1621FFF7DFFF2BE0FFF7DCFFD7
:10111000042328E002236370013324E06378013B59
:10112000DBB263706378FBB9042218E0104A1368DD
:101130009BB243F01003136005232370DB18637028
:1011400012E06378013BDBB26370637863B90849EE
:101150004FF6EF730A6802EA03030B600622034BA3
:101160001A7001E00623237010BD00BFC40A0020DE
:10117000405C0040074B10B51A6892B242F008027A
:101180001A601A6892B242F004021A60FEF7F8FF81
:1011900010BD00BF405C004070B5064D01232B60C0
:1011A000054B00241C602046FFF770FA03232B60D8
:1011B000204670BD405C0040445C0040012010B5FA
:1011C000FFF764FA064901230B60064B0020086014
:1011D0001860054B4FF4E0521A800A6010BD00BF42
:1011E000405C0040445C0040F80A002030BF70477B
:1011F00020BF704740BF7047BFF36F8F7047BFF38A
:101200004F8F7047BFF35F8F704701DF7047EFF379
:101210001480704780F31488BFF36F8F7047EFF32B
:101220000980704780F309887047EFF308807047A2
:1012300080F30888704772B6704762B6704771B61F
:10124000704761B6704780F311887047EFF31280E2
:10125000704740BA704700BA7047000043680A6898
:1012600023F4702323F4807313430A7910B543EAFF
:1012700002234360CB688A6884681A43084B04EAF7
:1012800003031A434B7942EA430282600B7CC26A31
:10129000013B22F47002DBB242EA0352C26210BD8B
:1012A000FDF7F1FF00230360037143718360C360A6
:1012B00001330374704700BF19B1836843F0010321
:1012C00002E0836823F001038360704719B18368EB
:1012D00043F4807304E082684FF6FF6302EA03037D
:1012E00083607047C9B21AB1436841EA030302E060
:1012F000436823EA01034360704700BF836843F0FB
:1013000008038360704700BF8068C0F3C000704767
:10131000836843F004038360704700BF8068C0F3B4
:101320008000704719B1836843F4A00302E083682A
:1013300023F4A003836070478068C0F38050704737
:101340004368013923F46043C9B243EA413343603F
:10135000704700BF19B1436843F4006302E043687B
:1013600023F4006343607047092930B594460C4666
:101370001D460CD90322624307231E3A934015FAF7
:1013800002F2C16821EA03011143C1600AE00322AD
:1013900062430723934015FA02F2016921EA03012F
:1013A00011430161BCF1060F0DD8052202FB0CF2BE
:1013B0001F23053A934014FA02F2416B21EA03011C
:1013C000114341631DE0BCF10C0F0DD8052202FB57
:1013D0000CF21F23233A934014FA02F2016B21EA24
:1013E0000301114301630CE0052202FB0CF21F23F1
:1013F000413A934014FA02F2C16A21EA030111430F
:10140000C16230BD19B1836843F4801302E0836880
:1014100023F4801383607047C06C80B2704700BFB4
:10142000014BD86C704700BF0024014019B14368DC
:1014300043F4806302E0436823F4806343607047B1
:1014400019B1436843F4805302E0436823F48053A6
:1014500043607047836823F4E04319438160704719
:1014600019B1836843F4004302E0836823F4004326
:101470008360704719B1836843F4021302E0836804
:1014800023F40213836070478068C0F340507047B4
:10149000092930B58C4615461C460DD9032202FB9E
:1014A0000CF207231E3A934014FA02F2C16821EAB3
:1014B00003011143C1600BE0032202FB0CF207237E
:1014C000934014FA02F2016921EA03011143016118
:1014D000816B0522C1F30153EB1A02335A431F23D8
:1014E00093400CFA02F221EA03011143816330BDFB
:1014F000836B013923F44013C9B243EA0153836378
:10150000704700BF82B00A5002B07047091882B01D
:10151000088D02B0704700BF436823F4400323F4F2
:10152000007319434160704741628262704700BF97
:10153000436823F01F0319434160704720B1054AF7
:10154000936843F4000303E0024A936823F4000322
:101550009360704700240140036819420CBF0020CB
:1015600001207047036823EA01030360704700BF4E
:101570004268036813EA112006D001EA020313F05F
:10158000FF0F0CBF00200120704700BF03686FEA07
:10159000112119400160704707B50E4B0190984228
:1015A00004D003F58063984212D107E04FF4007035
:1015B000012100F039FC4FF4007006E04FF4806028
:1015C000012100F031FC4FF48060002100F02CFC80
:1015D0000EBD00BF00240140044A136803F0380325
:1015E0001360136818431060704700BF002002406A
:1015F000044A136823F0080313601368184310604B
:10160000704700BF00200240044A136823F0100313
:101610001360136818431060704700BF0020024039
:10162000F0B5CD780E8815F0100F18BF8B7805F047
:101630000F0718BF1F4316F0FF0F20D004684FF0AC
:10164000000C012303FA0CF303EA0601994210D1BE
:101650004FEA8C020F23934017FA02F224EA0303A5
:10166000282D43EA020401D1416102E0482D08BF60
:1016700001610CF1010CBCF1080FE2D10460FF2EF6
:1016800021D944684FF0000C01230CF1080293406B
:1016900003EA0601994210D14FEA8C020F239340CE
:1016A00017FA02F224EA0303282D43EA020401D1C7
:1016B000416102E0482D08BF01610CF1010CBCF151
:1016C000080FE1D14460F0BD4FF0FF3303800223E7
:1016D0008370DB18C3707047836819420CBF002009
:1016E00001207047806880B2704700BFC36819420C
:1016F0000CBF002001207047C06880B2704700BF57
:1017000001617047416170470AB1016100E04161C8
:10171000704700BFC160704741F4803383618161CD
:10172000836183698369704710B5054C4FF68073F8
:10173000226841EA001102EA03031943216010BD47
:1017400000000140014B1860704700BF1C002042A0
:10175000114B30B54FEA004C10F400140D464FEA1F
:101760001C4C596802D021F0E0600BE010F4801F9F
:1017700006D0C0F303420323934021EA030001E0B3
:1017800021EA0C002DB114B140EA0C4001E040EA1E
:101790000C00014B586030BD0000014030B501F035
:1017A0000305AD000F23AB40A840074C8908023168
:1017B00054F8212022EA030244F8212054F8213071
:1017C000184344F8210030BD0000014001200146CB
:1017D00010B500F029FB0120002100F025FB10BD11
:1017E00007B51B4B019098421DD008D8A3F50063A4
:1017F00098420CD003F58063984228D10DE0154B38
:10180000984216D003F58063984220D117E0042057
:10181000012100F009FB042016E00820012100F05E
:1018200003FB082010E01020012100F0FDFA102039
:101830000AE02020012100F0F7FA202004E04020F7
:10184000012100F0F1FA4020002100F0EDFA0EBD78
:1018500000100140001401400B4B4FF0FF3140F2EB
:10186000FF72C3F880100020C3F88420C3F88011F1
:10187000C3F8842100F1C001034B013000220B2882
:1018800043F82120F6D1704700E100E0094A4FF00B
:1018900020630949536003F176439360D16013617B
:1018A00053619361D36113625362013B9362D362CC
:1018B0001363704700ED00E00000FA0540F0BE60E1
:1018C000024B40F42020D860704700BF00ED00E0DC
:1018D00030B5C37890F800C04BB31A4B4178DA6842
:1018E000194DD243C2F30222C2F1040399400F23DF
:1018F000D34082780CF0030013400B43C0001B015F
:10190000FF22824083404FEA9C04C03455F82410E3
:10191000134021EA02010B4345F824300CF01F026A
:10192000012393404FEA5C1145F8213009E00CF0A7
:101930001F02012393404FEA5C11034A203142F811
:10194000213030BD00ED00E000E100E00023037035
:1019500043708370C3707047024B5868C0F30930FE
:10196000704700BF00ED00E000F01F0301229A4025
:101970004009054B403053F820001040904214BFFE
:1019800000200120704700BF00E100E0014B18601B
:10199000704700BF00EF00E04109012300F01F0085
:1019A0008340024A603142F82130704700E100E094
:1019B000024B58688005800D704700BF00ED00E0C5
:1019C00000F01F0301229A404009054B803053F874
:1019D00020001040904214BF00200120704700BF3B
:1019E00000E100E0014B1868704700BF00ED00E027
:1019F00021F0604121F07F01014B01439960704764
:101A000000ED00E0014A024BDA6070470400FA057D
:101A100000ED00E0014A024BDA6070470100FA0570
:101A200000ED00E021B1054A136940EA030303E039
:101A3000024A136923EA00031361704700ED00E0D6
:101A400000F01F00012313FA00F021B1054A536A88
:101A500040EA030303E0034A536A23EA00035362A4
:101A6000704700BF00ED00E030B5114DEB68DB437F
:101A7000C3F30223C3F10404A140FF2434FA03F3A7
:101A80001A400A43C0F38111C0F30120C000844012
:101A900012018240063155F8213023EA040345F84B
:101AA000213055F821301A4345F8212030BD00BFC0
:101AB00000ED00E0C0F3832001238340044A506A14
:101AC00003EA0000984214BF00200120704700BFC5
:101AD00000ED00E000F01F0001238340024A51683E
:101AE0000B435360704700BF00ED00E000F01F00A3
:101AF000013801238340024A51680B435360704709
:101B000000ED00E0C0F3833001238340044A506AB3
:101B100003EA0000984214BF00200120704700BF74
:101B200000ED00E0C0F3814313B90B4BD86A11E01C
:101B3000012B0DD1084BC0F301519A6ACB0032FA48
:101B400003F0022914BF00F00F0000F0FF0001E0D5
:101B5000014B186B704700BF00ED00E010F4800FE0
:101B60000BBF024B014B586B986B704700ED00E0C8
:101B700010B5FFF76BFB10BD10B50001FFF763FB5D
:101B800010BD00BF10B5FFF75CFB10BD10B5FFF72F
:101B900056FB10BD10B5FFF750FB10BD10B5FFF799
:101BA0004AFB10BD104A00201423D060106153611D
:101BB0009061D061136843F00103136051680B4BCF
:101BC00001EA03035360136823F0847323F4803322
:101BD0001360136823F480231360536823F4FE0317
:101BE00053609060704700BF001002400000FFF893
:101BF0000C4AB0F5803F136823F4803313601368F8
:101C000023F48023136003D0B0F5802F08D103E0C4
:101C1000136843F4803302E0136843F4A023136095
:101C2000704700BF00100240034A136823F0F80316
:101C300043EAC0031360704700100240014B186074
:101C4000704700BF00004242034B5A6822F47C12E6
:101C5000104308435860704700100240014B186061
:101C6000704700BF60004242034B5A6822F00302F3
:101C700010435860704700BF00100240024B586884
:101C800000F00C00704700BF00100240034B5A6880
:101C900022F0F00210435860704700BF001002406D
:101CA000034B5A6822F4E06210435860704700BF4B
:101CB00000100240034A536823F4605343EAC00310
:101CC000536070470010024021B1054A137840EA82
:101CD000030303E0024A137823EA000313707047FA
:101CE00009100240014B1860704700BFD800424203
:101CF000034B5A6822F4404210435860704700BFBB
:101D000000100240064A002301281370137002D00D
:101D1000042804D101E0107001E00523137070471E
:101D200020100240014B1860704700BF80044242FF
:101D3000024B1A6A10431862704700BF001002403D
:101D4000014B1860704700BF3C0442421D4910B56A
:101D50004B68044603F00C03042B12D0082B10D15F
:101D60004B68C3F383439A1C4B6813F4803F03D042
:101D70004B6813F4003F01D0134B00E0134B534367
:101D800000E0124B0F48236043681149C3F303136B
:101D9000CB5C2268DA4062604368C3F30223CB5C09
:101DA00032FA03F3A3604368C3F3C223CB5CDA4087
:101DB000E2604368C3F38133C9180B7CB2FBF3F2D2
:101DC000226110BD0010024000093D0000127A009F
:101DD0002BA5000821B1054A536940EA030303E03B
:101DE000024A536923EA000353617047001002401E
:101DF00021B1054A936940EA030303E0024A93696B
:101E000023EA0003936170470010024021B1054AA4
:101E1000D36940EA030303E0024AD36923EA0003DB
:101E2000D36170470010024021B1054AD36840EAEF
:101E3000030303E0024AD36823EA0003D360704738
:101E40000010024021B1054A136940EA030303E090
:101E5000024A136923EA000313617047001002402D
:101E6000014B1860704700BF40044242014B1860AC
:101E7000704700BF4C004242014B1870704700BFD2
:101E8000071002404309012B02D1084B1B6805E0F3
:101E9000022B0BBF054B054B1B6A5B6A00F01F0052
:101EA00033FA00F000F00100704700BF001002405C
:101EB00010B53120FFF7E6FF084A10705368013370
:101EC0005360137813B95368FF2BF2D13120FFF719
:101ED000D9FF003818BF012010BD00BF1806002030
:101EE000024A536A43F08073536270470010024005
:101EF000034B9B6818420CBF00200120704700BFB5
:101F000000100240014B1870704700BF0A100240D9
:101F10000A884B8810B513438A8804881343CA88FB
:101F200004F4415413430A8913434A8913438A89A9
:101F30001343CA8913431C43A4B204800B8A03824F
:101F400010BD00BF0023038043808380C3800381D2
:101F500043818381C3814FF007030382704700BF31
:101F600021B103889BB243F0400304E0038823F0CF
:101F700040031B041B0C0380704700BF09090123A9
:101F80008B4099B222B183889BB241EA030303E0FC
:101F900083889BB223EA01038380704722B1838840
:101FA0009BB241EA030303E083889BB223EA010367
:101FB0008380704781817047808980B2704700BFFD
:101FC0004FF6FF63994204D003889BB243F48073B9
:101FD00002E0038801EA03030380704721B183888C
:101FE0009BB243F0040304E0838823F004031B0442
:101FF0001B0C8380704700BF038823F400631B041D
:102000001B0C038003889BB219430180704700BFFB
:1020100003889BB243F480530380704721B1038847
:102020009BB243F4005304E0038823F400531B04E1
:102030001B0C0380704700BF012914BF038B838AE8
:1020400098B27047008A80B2704700BFB1F5804FE8
:1020500004D103889BB243F4804304E0038823F453
:1020600080431B041B0C0380704700BF0389194287
:102070000CBF002001207047202906D10389038866
:102080009BB243F04003038008E0402901D100895E
:1020900004E003899BB223EA01030381704700BF78
:1020A000838810B54FF0010C9CB201F00F030CFABD
:1020B00003F3028992B212EA030006D00B090CFA6C
:1020C00003F31C420CBF0020012010BD552906D18E
:1020D000038903889BB243F0400303800CE0562938
:1020E00001D1008908E001F00F0101228A40038933
:1020F0009BB223EA02030381704700BF07B50F4B71
:10210000019098420ED003F57843984214D10121F2
:102110004FF48050FFF788FE4FF480500021FFF706
:1021200083FE09E04FF480400121FFF78BFE4FF45E
:1021300080400021FFF786FE0EBD00BF0038004042
:10214000042804D1054A136843F0040303E0034A5A
:10215000136823F004031360704700BF10E000E031
:10216000014B5860704700BF10E000E010B9084B09
:1021700098600BE0012804D1054A136843F001037D
:1021800003E0034A136823F001031360704700BFA4
:1021900010E000E020B1054A136843F0020303E0B9
:1021A000024A136823F002031360704710E000E056
:1021B000014B9868704700BF10E000E04309012B15
:1021C0000BBF054B044B1B68DB6800F01F0033FAA4
:1021D00000F000F00100704710E000E00B888385FC
:1021E0004B880385038803F08F03038003888A8864
:1021F0009BB21343CA8813439BB20380704700BF4E
:1022000030B5038C044648880D4601281FFA83FC2C
:1022100031D8364B218B33F8102003EB40031B8958
:102220000A4003EA0C0188B9238C23F44C6323F0A1
:102230000D039B049B0C23842B881A43AB88A38635
:10224000EB8843F0010343EA010C11E0238C23F4F3
:102250004C6323F01C039B049B0C23842B8842EAD1
:102260000322AB882387EB8841EA031343F0100C69
:1022700093B2238336E0831E9BB2012B32D81B4BD3
:10228000A18B33F8102003EB40031B890A4002287E
:1022900003EA0C0111D1238C23F45C6323F00C03BB
:1022A0009B049B0C23842B881A43AB88A387EB8861
:1022B00041EA032343F4807C12E0238C23F4E653A9
:1022C00023F00C039B049B0C23842B8842EA0322FB
:1022D000AB88A4F84030EB8841EA033343F4805CD8
:1022E00093B2A3831FFA8CF3238430BD40A500086A
:1022F0000023038043808380C380704700230380D2
:1023000043808380C38070474FF007010023018022
:102310004FF0010143808380C18003818372704745
:1023200021B103889BB243F0010304E0038823F04A
:1023300001039B059B0D0380704700BF22B1838979
:102340009BB241EA030303E083899BB223EA0103C2
:10235000838170470A43B0F84830A0F8482070479E
:1023600083898C4699B212B14CEA010101E021EA5D
:102370000C018BB283817047038923F00F031B0488
:102380001B0C0381704700BF10B504890A4304F099
:10239000F70442EA03222243028110BD10B504462D
:1023A000FFF7F2FF23899BB243F48043238110BDE2
:1023B00010B50446FFF7E8FF238923F00F031B0441
:1023C0001B0C238123899BB243F0070323812389BC
:1023D00023F078031B041B0C238123899BB243F059
:1023E0007003238110BD00BF038923F078031B0411
:1023F0001B0C19430181704710B50446FFF7F4FF29
:1024000023899BB243F00703238110BD012A018574
:1024100004D1838A9BB243F0010302E0838A03F074
:1024200001038382704700BF038823F070039B057C
:102430009B0D194301807047038B23F070031B042D
:102440001B0C194301837047038B090223F4E043FB
:102450001B041B0C89B2194301837047838B23F043
:1024600070031B041B0C194381837047838B090283
:1024700023F4E0431B041B0C89B21943818370478A
:1024800003889AB211B142F0800303E040F27F3337
:1024900002EA03039BB20380704700BF83889BB2AC
:1024A00011B143F0080301E003F0F0039BB2838015
:1024B000704700BF038B23F008031B041B0C194358
:1024C00001837047038B090223F400631B041B0C78
:1024D00089B2194301837047838B23F008031B04DF
:1024E0001B0C194381837047838B090223F400631B
:1024F0001B041B0C89B2194381837047038B23F0A3
:1025000004031B041B0C194301837047038B09024E
:1025100023F480631B041B0C89B2194301837047A9
:10252000838B23F004031B041B0C19438183704726
:10253000838B090223F480631B041B0C89B21943AB
:1025400081837047038B23F080031B041B0C19430A
:1025500001837047038B09025B045B0C89B219434A
:1025600001837047838B23F080031B041B0C1943EA
:1025700081837047838B09025B045B0C89B219432A
:102580008183704703889AB211B142F0020303E0DD
:1025900040F2FD3302EA03039BB20380704700BFA1
:1025A00070B50589048B068C24F4407424F0030470
:1025B00026F44E6625F00F05240426F00E062D04A1
:1025C000240CB60442EA03132D0CB60C44F48074B8
:1025D0009BB2294344F00104334301810483038403
:1025E00070BD00BF838A9BB219438182704700BFD0
:1025F000038C23F44C6323F00E039B049B0C1943C0
:1026000001847047038C090123F44E6323F00C030B
:102610009B049B0C89B2194301847047038C090207
:1026200023F46C6323F00C039B049B0C89B21943C5
:1026300001847047038C090323F44C6323F00C03DB
:10264000DB04DB0C89B2194301847047038801293C
:102650009AB216BF40F2FB3342F0040313409BB220
:102660000380704721B183889BB243F0800304E06C
:10267000838823F08F031B041B0C8380704700BFEB
:10268000038823F008039B059B0D194301807047C5
:10269000838803F08003194381807047038923F006
:1026A0000F031B041B0C194301817047038923F09E
:1026B00088031B041B0C19430181704781847047F8
:1026C0008185704781867047018770478187704791
:1026D000A0F84010704700BF038B23F00C031B04CD
:1026E0001B0C194301837047038B090223F44063D9
:1026F0001B041B0C89B2194301837047838B23F0A1
:102700000C031B041B0C194381837047838B090244
:1027100023F440631B041B0C89B219438183704767
:102720000388DBB219430180704700BF808E80B2FE
:10273000704700BF008F80B2704700BF808F80B2AB
:10274000704700BFB0F8400080B27047808C80B204
:10275000704700BF008D80B2704700BF038A1942E6
:102760000CBF002001207047038A9BB223EA0103BB
:1027700003827047028A838911EA02009BB203D068
:1027800019420CBF00200120704700BF038A9BB292
:1027900023EA01030382704770B5068B058C048C15
:1027A00025F44C6524F44C6424F00D0426F0F30663
:1027B00025F00F05A4043604AD04A40C360CAD0CB2
:1027C00042EA031341F00101048433434FF0000453
:1027D000294304830383018470BD00BF70B5058B5A
:1027E000068C048C26F44E6625F4407526F01C06F3
:1027F00024F44C642D051202B60424F01C042D0DA3
:1028000092B2B60C1B030901A4042A4346F0100639
:102810009BB289B2A40C1A430E430484028306843B
:1028200070BD00BF70B50D46602D0446114603D142
:102830000122FFF7D3FF02E00122FFF7ADFF2046A0
:102840002946FFF7D1FD23899BB243F0070323817B
:1028500070BD00BF0B882DE9F041072B06460D46E1
:1028600053D14B8813B98988EA8881E0012B02D1C2
:102870008988EA8868E0022BCF8891F80AC08C88A2
:1028800021D1818B028C038C22F47C6223F45C6363
:1028900023F00C0322F00C0224029B04920421F08A
:1028A000F3019B0C0904920CA4B20384090C144399
:1028B00047EA0C130B4344F480748383048429890E
:1028C000FFF71CFF5BE0818B028C038C22F0CC02B3
:1028D00023F4E65323F00C039B049B0C0384240392
:1028E00092053B0221F440710905920D43EA0C3335
:1028F000A4B2090D14439BB20B4344F48054838368
:1029000004842989FFF702FF39E08C88B1F806E0DA
:102910004988002C0CBF02230023BEF1010F0CBF1D
:102920000222012295F80AC09FB21FFA82F899B9D3
:10293000724621466346FFF72FFF30462989FFF78D
:10294000CBFE304639464246AB7AFFF747FF30466A
:102950002989FFF7C9FE12E0724621466346FFF758
:102960003DFF30462989FFF7BFFE304639464246D3
:10297000AB7AFFF711FF30462989FFF7ADFEBDE8BE
:10298000F08100BF07B5104B019098420CD003F5C1
:10299000806398420ED0B0F1804F13D101200146E0
:1029A000FFF750FA01200AE002200121FFF74AFA5E
:1029B000022004E004200121FFF744FA0420002152
:1029C000FFF740FA0EBD00BF00040040684620F04B
:1029D00007018D4601B5002103E00B4B5B584350C6
:1029E00004310A480A4B42189A42F6D3094A02E0D7
:1029F000002342F8043B084B9A42F9D3FDF754FEFA
:102A0000BDE8014085467047E4AE0008080000209C
:102A10000406002004060020000B002010B5074C1F
:102A200020B923684FF00101198206E0044B1B68AE
:102A30001B689847236803F10A0010BDF40A0020C0
:102A4000F00A002010B50A4B1A680A4BD1785B785F
:102A50008B420AD3937843B9948834B9064B917268
:102A60001B685B689847204600E0022010BD00BF4D
:102A7000F40A0020D4000020F00A002010B5074C12
:102A800020B923684FF00101198206E0044B1B684E
:102A90009B689847236803F10C0010BDF40A0020DE
:102AA000F00A002070B50E4B0E4D1B682A689B691A
:102AB0005079D17898472A68937A7BB170B91379A5
:102AC00063B9947854B9084B1B68DB6898472B6846
:102AD00020465A79DA72DA781A7300E0022070BD63
:102AE000CC0A0020F40A0020F00A002010B5274B81
:102AF00020B91B684FF00201198246E024484FF0CC
:102B0000000202801A68137813F07F0313D1527AFF
:102B100012F0200F03D0037843F00203037012F089
:102B2000400F1B4A15BF1378137823F0010343F0BD
:102B30000103137024E0012B27D0022B01D00020C9
:102B400023E0537903F00F0213F0800F4FEA820263
:102B500008D002F1804303F5B8431B6803F030034B
:102B6000102B08E002F1804303F5B8431B6803F41F
:102B70004053B3F5805F03D1037843F00103037042
:102B8000044B1B681B699847014810BDF40A0020DC
:102B9000C60A0020F00A002010B5234B1A685079AD
:102BA00020F0800110F0800F4FEA810307D003F17D
:102BB000804303F5B8431B6803F0300406E003F1DB
:102BC000804303F5B8431B6803F44054174B1B784C
:102BD000994227D253882BBB24B3937A13B310F0B6
:102BE000800F4FEA81030BD003F1804303F5B84314
:102BF000196848F6BF7201EA020282F010020AE088
:102C000003F1804303F5B84319684BF68F7201EA6C
:102C1000020282F480521A60054B1B689B69984738
:102C2000002000E0022010BDF40A0020D4000020A3
:102C3000F00A002010B5064B1A68537A43F02003BF
:102C40005372044B1B68DB699847002010BD00BF1E
:102C5000F40A0020F00A0020064B10B51A680C4652
:102C6000518A18B9A3885B1A138201E023685818A7
:102C700010BD00BFF40A002030B50E4B05461C788D
:102C80004FF0000C0FE05FFA8CF0820002F18042FE
:102C900002F5B842116848F68F7301EA0303034353
:102CA00013600CF1010CA445EDD3034B45F08002F9
:102CB0001A6030BDD40000204C5C0040704700BF5B
:102CC00010B50C4B002093F82C1000F053FE0A4B6B
:102CD0001B68187A082807D1084B4FF480521A80D5
:102CE000074B4FF010021A80092814BF0020012062
:102CF00010BD00BFA4000020F40A0020FA0A002042
:102D0000FC0A002070B52D4B1E68337A032B01D0CE
:102D1000052B46D1B269338AAAB1A3B1B48A9C42C9
:102D200028BF1C4620469047338A05461B1B33822A
:102D3000738A0020E318738200F0ECFD22460146FE
:102D4000284600F001FC338A5BB11D4B4FF4405222
:102D500000201A80014600F0EBFD1A4B4FF03002C4
:102D60001A80318AB38A8B4203D8144B1A68032322
:102D700003E0124A19B11268052313720DE01268BC
:102D800006231372104B1A68104B92B2D3185B00D3
:102D900019600C4B4FF030021A80084B1B681A7AEE
:102DA00006E0072B03D10A4B1B68DB689847082213
:102DB000024B1B681A72FFF783FF70BDF40A0020F4
:102DC000FA0A0020FC0A0020505C0040023000207B
:102DD000CC0A0020254B2DE9F0411E68318A307A5B
:102DE000C1B9042816D1224D224C2B78012B0CD1CD
:102DF000214B29701A68214B92B2D3185B004FF017
:102E000030021960228007462AE04FF01003238029
:102E1000072725E0B48AB369A14294BF042702279B
:102E20008C4228BF0C46204698470546002000F0FB
:102E300063FD22460146284600F06CFB2146002037
:102E400000F076FD338A4FF030021B1B3382738A09
:102E5000E418084B74821A80094B4FF440521A80D0
:102E6000024B1B681F72BDE8F08100BFF40A00200E
:102E700020060020FC0A0020505C004002300020A8
:102E8000FA0A002010B5144B1A68137A022B01D0ED
:102E9000042B05D1FFF79EFF0F4B1B681A7A14E035
:102EA000062B11D15378052B0AD1137813F07F0F1D
:102EB00006D1D078FFF7E0FE084B1B681B6A9847E5
:102EC000074B1B689B6898470822034B1B681A72C4
:102ED000FFF7F6FE10BD00BFF40A0020F00A002044
:102EE000CC0A002010B5364B19680B7813F07F0020
:102EF00004D14B7A23F020034B7260E002285DD1AD
:102F00004B88002B5AD10B79002B57D14C7924F0E8
:102F1000800014F0800F4FEA800207D002F1804356
:102F200003F5B8431B6803F0300206E002F180436A
:102F300003F5B8431B6803F44052224B1B789842B8
:102F40003CD2002A3AD08B7A002B37D014F0800F75
:102F50004FEA800211D002F1804303F5B8431B68A9
:102F600003F03003102B23D1C4B2204600F07CFCC8
:102F70002046302100F058FB1AE002F1804404F5AD
:102F8000B844236803F44053B3F5805F10D128B9E7
:102F90000D4B93F82C1000F0EDFC01E000F052FC1A
:102FA00022684BF68F7302EA030383F440532360D5
:102FB000064B1B685B699847002000E0022010BDAB
:102FC000F40A0020D4000020A4000020F00A002011
:102FD000894BF7B51A68894F894B92B2D3183D686F
:102FE0005B001C682B7A092B17D0A4B204F10054A3
:102FF00004F540546400237804F10A062B706378CA
:103000006B70A08800F06CFE688020893D6800F03D
:1030100067FEA8803B687688DE80784D01232A68A9
:103020001372D3885478002B62D1137813F07F0386
:103030002ED1092C02D1FFF705FD3BE0052C0DD167
:1030400092F90330002B4EDB9378002B4BD1938801
:10305000002B48D1937A002B37D044E0032C0BD1BE
:10306000D378012B27D193882BBB537A13F0200FF1
:1030700021D0FFF7DFFD1DE0012C1CD1D378012BFF
:1030800019D19388BBB9537A13F0200F13D00AE0FB
:10309000012B04D10B2C0ED1FFF704FD0AE0022B0B
:1030A00009D1012C02D1FFF71DFF03E0032C02D14F
:1030B000FFF772FD48B1534B20461B685B69984788
:1030C000032801D109220FE068B94B4B4FF03001C2
:1030D0001A684D4B92B2D3185B0000221A604B4B1A
:1030E0000632198000E00822444B1B681A72EAE09D
:1030F000062C18D1137813F07F0F40F09C80937842
:10310000012B03D13F4B1B68DA6989E0022B03D105
:103110003C4B1B681A6A83E0032B40F08C80394BD0
:103120001B685A6A7CE0002C43D15188002940F08A
:103130008280536823F47F43B3F5003F7BD113783B
:1031400013F07F0303D19388002B74D12FE0012B60
:103150000BD12C4B50791B689B69984700286AD18A
:103160002B689B7A002B66D021E0022B63D1527929
:1031700002F00F0012F0800F4FEA800307D003F136
:10318000804303F5B8431B6803F0300106E003F108
:10319000804303F5B8431B6803F440511C4B1B7874
:1031A000984248D212F0700F45D1002943D0194AF5
:1031B00037E0082C05D1137813F07F0F3BD1164A66
:1031C0002FE00A2C37D1137803F07F03012B32D183
:1031D000937A002B2FD0518869BB536823F47F4327
:1031E000B3F5803F27D1074B50791B689B699847FF
:1031F00008BB0A4A15E000BF505C0040F40A0020FA
:1032000004300020CC0A002002300020FC0A0020FC
:10321000D4000020ED2A00081D2A00087D2A00089D
:103220004AB12A4B4FF000011B68002059829A6175
:10323000904700200CE0264B244C1A682368126942
:1032400058789047032803D12268092313723AE083
:103250001E4B1C684FF6FF73218A994201D1092346
:1032600003E0022800D011B9082323722BE094F95F
:103270000030002B21DAE2880192019B994202D9A9
:10328000019B238211E091420FD2114B1B6893F8EE
:103290002C20914201D2002205E091FBF2F302FBC7
:1032A000131313B901220B4B1A70094B1B6893F8C7
:1032B0002C30A382FFF78EFD05E003232372064B1B
:1032C0004FF440521A80FFF7FBFCFEBDF40A0020C9
:1032D000CC0A002020060020FA0A0020074A084BEA
:1032E00008491A60022310B51372074B074A196088
:1032F000074B1A600B68984710BD00BFD40A002026
:10330000F40A0020A4000020CC0A0020D8000020ED
:10331000F00A002010B52AE047F6FF730B6013880F
:10332000184803F00F0303709B0003F1804101F57F
:10333000B8410B689BB213F4004F09D00A6840F6FD
:103340008F7302EA03030B6003780F4A013B0BE023
:1033500013F0800F0BD00A6848F60F7302EA0303DC
:103360000B600378094A013B52F82330984708491B
:10337000084A0B689BB2138013881BB2002BCBDB6F
:1033800010BD00BFD00A0020480000202C00002003
:10339000445C0040BE0A002070B59FE047F6FF7312
:1033A00013600B88534803F00F030370002B69D19F
:1033B000514C524D2368524A03F440532B802368EA
:1033C00003F03003138022684BF68F7302EA030385
:1033D00083F400532360226848F6BF7302EA0303B4
:1033E00083F0200323600B8813F0100F04D02368B0
:1033F0009BB213F0800F08D0236848F60F7203EADF
:1034000002022260FFF73EFD16E013F4006F08D0C1
:10341000236840F68F7203EA02022260FFF7D8FDAC
:103420000AE013F4004F59D0236840F68F7203EA84
:1034300002022260FFF766FC23684BF68F7103EAF5
:1034400001012B8848F6BF7213F4805F18BF81F426
:10345000805113F4005F284B18BF81F400511960AC
:103460001B6803EA0202264B1B8813F0100F18BFDB
:1034700082F0100213F0200F1F4B18BF82F02002C1
:103480001A6035E09B0003F1804101F5B8410B68FB
:103490009CB214F4004F0BD00A6840F68F7302EA16
:1034A00003030B600378174A013B52F82330984717
:1034B00014F0800F12D00F4848F60F730278920074
:1034C00002F1804202F5B842116801EA0303136079
:1034D00003780D4A013B52F8233098470B4A0C49B8
:1034E00013689BB20B800B881BB2002BFFF656AF04
:1034F00070BD00BFD00A0020005C0040FA0A002026
:10350000FC0A0020480000202C000020445C004001
:10351000BE0A002001F1005101F54051013210B501
:103520004FF0000C4C0051080BE000EB0C035A78F4
:1035300010F80C30013943EA022324F81C300CF156
:10354000020C0029F1D110BD01F10051013201F549
:10355000405110B549005208002304E031F81340EF
:10356000013AC4520233002AF8D110BD014B186051
:10357000704700BF405C0040014B186880B2704744
:10358000405C0040014B1860704700BF445C004045
:10359000014B186880B27047445C0040014B1868CA
:1035A00080B27047485C0040014B1860704700BF14
:1035B0004C5C0040014B186880B270474C5C004086
:1035C0004FF6F873024A00EA03031360704700BF26
:1035D000505C0040014B186880B27047505C00405E
:1035E000014B43F820107047005C0040024B53F839
:1035F000200080B2704700BF005C004010B5054C51
:1036000048F68F1354F8202002EA03030B4344F8D2
:10361000203010BD005C0040024B53F8200000F445
:10362000C0607047005C0040800000F1804000F501
:10363000B840036848F6BF7203EA020211F0100FA7
:1036400018BF82F0100211F0200F18BF82F0200284
:1036500002607047800000F1804000F5B8400368C8
:103660004BF68F7203EA020211F4805F18BF82F4F6
:10367000805211F4005F18BF82F40052026070475C
:1036800070B50C460546FFF7B1FF012C07D1AB0022
:1036900003F1804303F5B84320F4805208E0022C84
:1036A00007D1AB0003F1804303F5B84320F01002CB
:1036B0001A6070BD024B53F8200000F030007047D4
:1036C000005C0040024B53F8200000F4405070476B
:1036D000005C0040054948F6BF7351F8202002EA1B
:1036E000030383F0300341F820307047005C004052
:1036F00005494BF68F7351F8202002EA030383F447
:10370000405341F820307047005C0040054948F6BE
:103710008F6351F8202002EA030343F4807341F8D9
:1037200020307047005C0040044948F68F6351F830
:10373000202002EA030341F820307047005C00407B
:10374000044948F68F6351F8202002EA030341F848
:1037500020307047005C0040054948F68F6351F8FF
:10376000202002EA030343F4807341F820307047BD
:10377000005C0040054948F68F6351F8202002EABA
:10378000030343F4807341F820307047005C00402D
:10379000044948F68F6351F8202002EA030341F8F8
:1037A00020307047005C0040044B53F8200000F0CC
:1037B0003000102814BF002001207047005C00403A
:1037C000054B53F8200000F44050B0F5805F14BF63
:1037D00000200120704700BF005C0040044940F613
:1037E0008F7351F8202002EA030341F8203070471C
:1037F000005C0040044948F60F7351F8202002EAAB
:10380000030341F820307047005C0040054948F64A
:103810008F7351F8202002EA030343F4804341F8F8
:1038200020307047005C0040054948F68F7351F81E
:10383000202002EA030343F0400341F820307047A0
:10384000005C0040800000F1804000F5B840036853
:1038500013F4804F07D0026848F68F7302EA03031F
:1038600043F4804303607047800000F1804000F51E
:10387000B840036813F0400F07D0026848F68F7312
:1038800002EA030343F040030360704710B5054CA0
:1038900048F68F7354F8202002EA03030B4344F8E0
:1038A000203010BD005C0040024B53F8200000F0B7
:1038B0000F007047005C0040064B49081B68490038
:1038C0009BB203EBC00303F1005303F540535B00CD
:1038D00019607047505C0040054B064A1B68490858
:1038E0009BB203EBC0039A18520049001160704765
:1038F000505C004004300020054B1B689BB203EB7A
:10390000C00303F1005303F540535B001888704770
:10391000505C0040044B1A68044B92B202EBC002A8
:10392000D3185B0018887047505C004004300020BA
:10393000044B1A68044B92B202EBC002D3185B002E
:1039400019607047505C0040023000203E2909D9C0
:103950004B0911F01F0F01D1013B9BB29B0243F4B5
:10396000004305E04B0811F0010F18BF01339B0223
:10397000036070470D4B1A680D4B92B2D31803EBDE
:10398000C0035A003E2909D94B0911F01F0F01D17C
:10399000013B9BB29B0243F4004305E04B0811F04E
:1039A000010F18BF01339B0213607047505C004049
:1039B00006300020054B1A68054B92B202EBC0029C
:1039C000D3185B0018688005800D7047505C00407C
:1039D00002300020054B1A68054B92B202EBC00280
:1039E000D3185B0018688005800D7047505C00405C
:1039F0000630002010B50B4CC000236849089BB26C
:103A0000C31803F1005303F540535B0049001960EC
:103A1000236852089BB2C018034B5200C3185B00C6
:103A20001A6010BD505C004004300020064B49086D
:103A30001B6849009BB203EBC00303F1005303F57D
:103A400040535B0019607047505C0040054B064ACC
:103A50001B6849089BB203EBC0039A185200490047
:103A600011607047505C004004300020054B1B681B
:103A70009BB203EBC00303F1005303F540535B001B
:103A800018887047505C0040044B1A68044B92B28F
:103A900002EBC002D3185B0018887047505C0040EE
:103AA00004300020012910B58446144625D1264B48
:103AB0004FEAC0001A68254B92B2D3181B185A005F
:103AC0003E2C09D9630914F01F0F01D1013B9BB2B1
:103AD0009B0243F4004305E0630814F0010F18BF94
:103AE00001339B021360184B1A68194B92B2D3181A
:103AF0001B1858003E2C1ED913E0022922D112486F
:103B00004FEACC010268114B92B28A18D3185B00BD
:103B10001C6003689BB2C9180D4BCB185B001C607E
:103B200010E0630914F01F0F01D1013B9BB29B020F
:103B300043F4004305E0630814F0010F18BF01339C
:103B40009B02036010BD00BF505C004002300020AB
:103B5000063000200129844610461BD1134B1A68F9
:103B6000134B92B2D31803EBCC035A003E2809D969
:103B7000430910F01F0F01D1013B9BB29B0243F49C
:103B8000004305E0430810F0010F18BF01339B020A
:103B900013600AE0022908D1044B1A68044B92B260
:103BA00002EBCC02D3185B0018607047505C0040F9
:103BB000023000200129844610461BD1134B1A689D
:103BC000134B92B2D31803EBCC035A003E2809D909
:103BD000430910F01F0F01D1013B9BB29B0243F43C
:103BE000004305E0430810F0010F18BF01339B02AA
:103BF00013600AE0022908D1044B1A68044B92B200
:103C000002EBCC02D3185B0018607047505C004098
:103C100006300020054B1A68054B92B202EBC00239
:103C2000D3185B0018688005800D7047505C004019
:103C300002300020054B1A68054B92B202EBC0021D
:103C4000D3185B0018688005800D7047505C0040F9
:103C5000063000200D49C0000B680D4A9BB2C31806
:103C60009A185200138813F47C4F01D001200CE005
:103C70000B68084A9BB2C3189A18520013889B0518
:103C80009B0D002B14BF022000207047505C0040A9
:103C9000063000200230002001290CD1830003F1FE
:103CA000804303F5B843196848F68F7201EA0202AF
:103CB00042F040020DE002290CD1830003F1804361
:103CC00003F5B843196848F68F7201EA020242F41C
:103CD00080421A60704700BF41EA0020704700BF71
:103CE000C3B2000A40EA0320704700BF10B59446F3
:103CF0000B4A1C461378834288BF10700848084A54
:103D000043786345937838BF80F801C08B4288BF01
:103D10009170034AD378A34238BFD47010BD00BF5E
:103D20002106002070B58C464FEAC11513490446A0
:103D3000052303FB0210A6460021114B10F8012BAE
:103D400073445B191A710EF101035FFA83FE4B1C79
:103D5000D9B20529F1D1621DD2B20CF10103501F75
:103D60004FEACC01013ADB00C0B201F0F801D2B257
:103D700003F0F803FFF7BAFF70BD00BF58A50008B5
:103D8000210600202DE9F04104460D461746002685
:103D9000BA5D6AB120462946FFF7C4FFA31DDCB215
:103DA000792C02DD6B1CDDB200240136072DEFD922
:103DB000BDE8F0812DE9F04104460D461746002686
:103DC0000DE020462946FFF7ADFFA31DDCB2792C9C
:103DD00002DD6B1CDDB200240136072D02D8BA5D6E
:103DE000002AEED1BDE8F08110F0800F10B51BD194
:103DF0003F2919D84FEAD10C0C4CCB434AB103F000
:103E0000070301229A4000EBCC1161180B79134390
:103E100009E003F0070301229A4000EBCC1161187E
:103E20000B7923EA02030B7110BD00BF21060020AD
:103E30002DE9F04F85B00746144600938B1ADDB28A
:103E4000801A6318D2190E46C0B22946D2B2DBB22C
:103E5000FFF74CFF06E029463846009AFFF7C4FFFB
:103E60006B1CDDB2A3199D42F5DD4DE01BF0800F08
:103E70000AD1019A0AF1FF335FFA83FA931CDBB28D
:103E800001935B445FFA83FB09F101035FFA8AF84F
:103E90005FFA83F9C8EB06030EE05FFA89F4E019D4
:103EA000C0B22946009A3C1BFFF79EFFE0B22946AC
:103EB000009AFFF799FF6B1CDDB24FFA8AF39B194A
:103EC0009D42EADDC9EB06030EE008EB0700C0B235
:103ED0002146009AFFF788FFC8EB0700C0B22146D1
:103EE000009AFFF781FF631CDCB2039B9C42ECDD70
:103EF000029A02EB0B035FFA83FB931CDBB2029383
:103F0000039B013303930FE0C4F101035FFA83FBCA
:103F10006FF001036343DBB20193721C0323A246DB
:103F200003924FF0000902934FFA89F24FFA8AF395
:103F30009A429BDB05B0BDE8F08F00BF2DE9F04F42
:103F4000C2EB0009C2EB010602EB000802EB01051F
:103F50005FFA89F9F6B25FFA88F8EDB287B01F46CA
:103F6000144683468A464846314642462B46FFF76A
:103F7000BDFEC4F10103DBB201936FF001036343A3
:103F80005846DBB229463A4602930494FFF72CFFC9
:103F9000584631463A46FFF727FF404651463A46D3
:103FA000FFF722FF51463A464846FFF71DFF002122
:103FB00003220391059263E0019B13F0800F0BD164
:103FC0000499029A4B1EDBB201990493931CDBB255
:103FD00002935B18DBB20193039A0599531C019A73
:103FE000DBB203938B18DBB204990193039BCEB22F
:103FF0005FFA83F808EB0B0906EB0A04E4B25FFAF8
:1040000089F9214648463A46C8EB0B05FFF7ECFE16
:10401000EDB22146C6EB0A042846E4B23A46FFF761
:10402000E3FE214648463A46FFF7DEFE2846214693
:1040300006EB0B0508EB0A043A46EDB2E4B2C6EB18
:104040000B06FFF7D1FEF6B2284621463A46C8EBEA
:104050000A08FFF7C9FE5FFA88F8304621463A465B
:10406000FFF7C2FE284641463A46FFF7BDFE3A46F4
:1040700030464146FFF7B8FE059A931CDBB2059324
:10408000039B04995AB24BB29A4295DB07B0BDE844
:10409000F08F00BF2DE9F04705460E469046994641
:1040A0009DF8207004460DE0204631463A46FFF761
:1040B0009BFE711E49442046C9B23A46FFF794FE62
:1040C000631CDCB208EB05039C42EDDB34460DE0DB
:1040D000214628463A46FFF787FE681E404421469F
:1040E000C0B23A46FFF780FE631CDCB209EB060360
:1040F0009C42EDDB08EB050228463146D2B2DBB22A
:10410000FFF7F4FDBDE8F0872DE9F04707460E46BE
:10411000924698469DF8209005460CE02146284698
:104120004A46FFF761FE631CDCB208EB06039C42C3
:10413000F4DB6B1CDDB20AEB0702954201DA344670
:10414000F3E708EB060338463146D2B2DBB2FFF79D
:10415000CDFDBDE8F08700BF2DE9F74F1C4617469F
:104160009DF83030621A002AB8BF524201933B1AC0
:10417000002BB8BF5B429A42D4BF4FF0000B4FF008
:10418000010B05460E46BBF1000F04D02346064640
:104190003C460D461F46BD4205D93B462F461D46AF
:1041A000234634461E462346284631463A46FFF704
:1041B0009DFD7B1B5FFA83F8A31B002BB8BF5B42FE
:1041C0005FFA83FAA64234BF4FF001094FF0FF09AE
:1041D0004FEA580418E0BBF1000F02D030462946E0
:1041E00001E028463146019AFFF7FEFDCAEB0403C1
:1041F000DCB214F0800F05D006EB0903DEB204EB4D
:104200000803DCB26B1CDDB2BD42E4D9BDE8FE8F11
:104210002DE9F04F85B0894603929DF838109DF83E
:104220003C2080461F4602910192002515E003992B
:1042300001EB0B031B5D1AEA030F06D005EB090126
:104240003046C9B2019AFFF7CFFD731C0134DEB2CC
:10425000E3B2BB42EBD36B1CDDB2029A95420AD2A9
:10426000EB0807FB03FB05F00702012303FA02FA40
:1042700046460024ECE7029907EB080201EB09032C
:1042800040464946D2B2DBB2FFF730FD05B0BDE88B
:10429000F08F00BF10F0800F10B58C4621D13F2960
:1042A0001FD84FEAD1010F4C6FEA0C034AB103F05B
:1042B000070301229A4000EBC11161180B791343E7
:1042C00009E003F0070301229A4000EBC1116118D5
:1042D0000B7923EA02030B71024661466346FFF73E
:1042E00005FD10BD2106002010F0800F0ED13F29E2
:1042F0000CD8074BCA0803EBC2131B181A79CB431F
:1043000003F007031A4102F0010000E000207047AB
:1043100021060020002110B54FF48062044801F00E
:1043200019FB002001467F223F23FFF7DFFC10BD71
:104330002506002010B5044605480221FDF796FE2B
:104340000028F9D002482146FDF734FE10BD00BF19
:104350000038004010B54FF4006104460348FDF7F3
:10436000CFF92046FFF7E6FF10BD00BF000C01406B
:1043700010B54FF4006104460348FDF7C3F9204629
:10438000FFF7D8FF10BD00BF000C014070B500253D
:1043900045F0B000FFF7ECFF002404F00F00FFF73A
:1043A000E7FF200940F01000FFF7E2FF0020FFF7D1
:1043B000D1FF631CDCB2802CEFD16B1CDDB2082D69
:1043C000E6D170BD2DE9F04100260827234DAB78DA
:1043D000BB4233DAEB78B3EBC60F33DB0120FCF7DB
:1043E0001DF81F4B985D40F0B000FFF7C1FF0120A2
:1043F000FCF714F82C7895F8018004F00F00FFF713
:10440000B7FF0120FCF70AF8200940F01000FFF781
:10441000AFFF0120FCF702F8E020FFF7A9FF012021
:10442000FBF7FCFFF50107E00C4B1B195B19187932
:10443000FFF790FF631CDCB24445F5D30136083723
:10444000082EC3D1054A6FF07F0300211370C033DB
:1044500051709370D170BDE8F08100BF210600203B
:1044600050A5000810B504468120FFF781FF04F035
:104470003F00FFF77DFF10BD10B51E4C4FF40071DB
:104480002046FDF73FF920464FF48061FDF73AF9E9
:104490004FF4FA70FBF7C2FF4FF480612046FDF73E
:1044A0002FF9A320FFF764FFA020FFF761FFC020D2
:1044B000FFF75EFF4020FFF75BFF2C20FFF758FF60
:1044C0003220FBF7ABFF2E20FFF752FF3220FBF725
:1044D000A5FF2F20FFF74CFF0A20FBF79FFF2620A8
:1044E000FFF746FF002001467F223F23FFF7FEFB38
:1044F00010BD00BF000C014010B50446FFF7BCFF23
:10450000AF20FFF735FFA420FFF732FF2046FFF76B
:10451000A9FF10BD416882680B6823EA02030B60A3
:104520000B68C26813430B60704700BF4168826824
:104530000B6823EA02030B600B68026913430B60EC
:10454000704700BF03689A68838A13420CBF00203B
:10455000012070470268838A136170470268838A6A
:104560005361704772B6704762B6704710B5044623
:10457000FFF7F8FF2046FFF7CDFFFFF7F5FF10BD6F
:104580000023837780F82030C37707214218002367
:10459000937509B10139F9E7704700BF10B50446BA
:1045A0000020844609E014F80C30054A80EA030331
:1045B000D05C4B1E0CF1010CD9B20029F3D110BD17
:1045C00053AA000870B5064600200D4684461DE03B
:1045D00016F80C2000F0FF0353400F4A03F0FF04CD
:1045E00003F00F03D31802EB141293F8001192F8A2
:1045F0000031000A99421CBF4CF201035840A3014C
:1046000083EA430383EA00000CF1010C1FFA8CF3E8
:10461000AB42DDD370BD00BF53AA000810B51446ED
:10462000FFF7D0FFC04380B2237800F0FF029A4228
:1046300001D0002005E06378B3EB102F14BF0020F9
:10464000012010BD10B50446FFF78CFF2046FFF790
:1046500085FF2046FFF76AFF0320FBF7D3FE2046C5
:10466000FFF758FF0A20FBF7CDFE2046FFF76AFF51
:104670000446FFF779FF3520FBF7C4FE204610BD46
:104680002DE9F04100240746012625463846FFF76C
:10469000D9FF00B1344301357300082DDEB2F5D1E6
:1046A0002046BDE8F08100BF2DE9F04107460E46E7
:1046B0001546002404E03846FFF7E2FF3055013488
:1046C000A3B2AB42F7D3BDE8F08100BF11F0010FF8
:1046D00010B5044611D0FFF745FF2046FFF73EFF17
:1046E0002046FFF723FF0A20FBF78CFE2046FFF74A
:1046F00031FFFFF739FF372010E0FFF733FF204687
:10470000FFF72CFF2046FFF711FF4120FBF77AFE51
:104710002046FFF71FFFFFF727FF0520FBF772FE7C
:1047200010BD00BF2DE9F04106460F4601250024CB
:104730003D420CBF0021012130460134FFF7C6FF86
:104740006B00082CDDB2F3D1FFF70CFF3046FFF70A
:10475000E1FE3046FFF702FFFFF706FFBDE8F081FC
:1047600010B5CC21FFF7DEFF10BD00BF70B50D46C0
:1047700055210646FFF7D6FF0024295D3046013457
:10478000FFF7D0FF082CF8D170BD00BF2DE9F04134
:1047900005460F461646002404E0395D2846FFF71B
:1047A000C1FF0134A3B2B342F7D3FFF7DBFE2846C3
:1047B000FFF7B0FE2846FFF7D1FEFFF7D5FEBDE8B4
:1047C000F08100BF70B50546FFF7CCFE2846FFF725
:1047D000A1FEFFF7C9FE7D24631EDCB254B30220A4
:1047E000FBF710FE2846FFF7ADFE0028F4D0FFF7D8
:1047F000B9FE2846FFF7B2FE2846FFF797FEFFF7FF
:10480000B3FE4FF4FA70FBF7FDFDFFF7ABFE284651
:10481000FFF780FE5020FBF7F5FD2846FFF792FEDC
:10482000D0F1010438BF0024FFF79EFE4FF4D27090
:10483000FBF7E8FD204670BD2DE9F04790F82050C9
:1048400004468A46002D5AD1FFF7BCFF20B9A07755
:1048500084F82000E07760E02046F021FFF762FF57
:104860000127A946A8463E462046FFF7EBFE05462F
:104870002046FFF7E7FE012D02D1012815D133E0D4
:1048800085421AD1A37F9F4207D204EB08039B7D88
:104890001E420CBF0021012102E014BF00210121B2
:1048A00019B9082F40D8E7773EE004EB0802937D62
:1048B000012146EA0303937506E0294604EB08024A
:1048C000937D23EA060393752046FFF7FFFE7B1CCA
:1048D000DFB27300DEB226B908F101035FFA83F894
:1048E0000136B8F1070FBFD9402F08D984F81E90C0
:1048F000B9F1000F13D1012384F820300FE0002319
:10490000A37784F82030E37718460022A3189B7D14
:104910000AF802300132082AF8D1BDE8F087A37DF9
:10492000002BECD00120F0E7B946C7E72F4B73B559
:10493000994205460C46164601D1042013E02C4B43
:10494000994201D108200EE02A4B994201D1102052
:1049500009E0294B994201D1202004E0274B9942DC
:104960000CBF402000200121FDF742FA03238DF8FF
:104970000630013320460DEB0301ADF804608DF8DD
:104980000730FCF74DFE16F0FF02AE822C600BD014
:104990006C60002101238B4006EA03029A420ED08C
:1049A00001310829F6D113E0231D6B60114601F196
:1049B000080301229A4006EA0203934205D18A00C5
:1049C0000F239340D1B2AB6002E001310829EED150
:1049D00004238B40AA6828461340EB6017238B40C2
:1049E00013402B61FFF7CCFD7CBD00BF00080140E8
:1049F000000C01400010014000140140001801406B
:104A000081F0004102E000BF83F0004330B54FEA7F
:104A100041044FEA430594EA050F08BF90EA020FEC
:104A20001FBF54EA000C55EA020C7FEA645C7FEA7F
:104A3000655C00F0E2804FEA5454D4EB5555B8BFA2
:104A40006D420CDD2C4480EA020281EA030382EA13
:104A5000000083EA010180EA020281EA0303362DA5
:104A600088BF30BD11F0004F4FEA01314FF4801C78
:104A70004CEA113102D0404261EB410113F0004F8A
:104A80004FEA03334CEA133302D0524263EB430341
:104A900094EA050F00F0A780A4F10104D5F1200EDF
:104AA0000DDB02FA0EFC22FA05F2801841F100013A
:104AB00003FA0EF2801843FA05F359410EE0A5F10E
:104AC00020050EF1200E012A03FA0EFC28BF4CF03F
:104AD000020C43FA05F3C01851EBE37101F00045F5
:104AE00007D54FF0000EDCF1000C7EEB00006EEB02
:104AF0000101B1F5801F1BD3B1F5001F0CD349088C
:104B00005FEA30004FEA3C0C04F101044FEA4452E2
:104B100012F5800F80F09A80BCF1004F08BF5FEA69
:104B2000500C50F1000041EB045141EA050130BD49
:104B30005FEA4C0C404141EB010111F4801FA4F1EC
:104B40000104E9D191F0000F04BF01460020B1FA41
:104B500081F308BF2033A3F10B03B3F120020CDA79
:104B60000C3208DD02F1140CC2F10C0201FA0CF057
:104B700021FA02F10CE002F11402D8BFC2F1200CBC
:104B800001FA02F120FA0CFCDCBF41EA0C01904072
:104B9000E41AA2BF01EB0451294330BD6FEA0404BB
:104BA0001F3C1CDA0C340EDC04F11404C4F12002A6
:104BB00020FA04F001FA02F340EA030021FA04F3B8
:104BC00045EA030130BDC4F10C04C4F1200220FA0F
:104BD00002F001FA04F340EA0300294630BD21FA4D
:104BE00004F0294630BD94F0000F83F4801306BF13
:104BF00081F480110134013D4EE77FEA645C18BF07
:104C00007FEA655C29D094EA050F08BF90EA020F9D
:104C100005D054EA000C04BF1946104630BD91EA95
:104C2000030F1EBF0021002030BD5FEA545C05D198
:104C30004000494128BF41F0004130BD14F58004D7
:104C40003CBF01F5801130BD01F0004545F0FE414B
:104C500041F470014FF0000030BD7FEA645C1ABF80
:104C6000194610467FEA655C1CBF0B46024650EAB7
:104C7000013406BF52EA033591EA030F41F40021E3
:104C800030BD00BF90F0000F04BF0021704730B569
:104C90004FF4806404F132044FF000054FF000013E
:104CA00050E700BF90F0000F04BF0021704730B5FF
:104CB0004FF4806404F1320410F0004548BF4042D4
:104CC0004FF000013EE700BF42004FEAE2014FEA29
:104CD00031014FEA02701FBF12F07F4393F07F4F04
:104CE00081F06051704792F0000F14BF93F07F4F36
:104CF000704730B54FF4607401F0004521F0004179
:104D000020E700BF50EA010208BF704730B54FF0FE
:104D100000050AE050EA010208BF704730B511F003
:104D2000004502D5404261EB41014FF4806404F13B
:104D300032045FEA915C3FF4DCAE4FF003025FEABD
:104D4000DC0C18BF03325FEADC0C18BF033202EB45
:104D5000DC02C2F1200300FA03FC20FA02F001FA9F
:104D600003FE40EA0E0021FA02F11444C1E600BF3E
:104D700070B54FF0FF0C4CF4E06C1CEA11541DBFF1
:104D80001CEA135594EA0C0F95EA0C0F00F0DEF8BC
:104D90002C4481EA030621EA4C5123EA4C5350EAA1
:104DA000013518BF52EA033541F4801143F48013F2
:104DB00038D0A0FB02CE4FF00005E1FB02E506F083
:104DC0000042E0FB03E54FF00006E1FB03569CF0D8
:104DD000000F18BF4EF0010EA4F1FF04B6F5007FDE
:104DE00064F5407404D25FEA4E0E6D4146EB060650
:104DF00042EAC62141EA55514FEAC52040EA5E50D9
:104E00004FEACE2EB4F1FD0C88BFBCF5E06F1ED882
:104E1000BEF1004F08BF5FEA500E50F1000041EBB9
:104E2000045170BD06F0004646EA010140EA020066
:104E300081EA0301B4EB5C04C2BFD4EB0C0541EA88
:104E4000045170BD41F480114FF0000E013C00F39D
:104E5000AB8014F1360FDEBF002001F0004170BDC1
:104E6000C4F10004203C35DA0C341BDC04F11404DA
:104E7000C4F1200500FA05F320FA04F001FA05F266
:104E800040EA020001F0004221F0004110EBD37033
:104E900021FA04F642EB06015EEA430E08BF20EA5F
:104EA000D37070BDC4F10C04C4F1200500FA04F302
:104EB00020FA05F001FA04F240EA020001F0004194
:104EC00010EBD37041F100015EEA430E08BF20EA07
:104ED000D37070BDC4F1200500FA05F24EEA020E4F
:104EE00020FA04F301FA05F243EA020321FA04F07E
:104EF00001F0004121FA04F220EA020000EBD37035
:104F00005EEA430E08BF20EAD37070BD94F0000F34
:104F10000FD101F00046400041EB010111F4801F68
:104F200008BF013CF7D041EA060195F0000F18BF19
:104F3000704703F00046520043EB030313F4801F55
:104F400008BF013DF7D043EA0603704794EA0C0F0F
:104F50000CEA135518BF95EA0C0F0CD050EA410625
:104F600018BF52EA4306D1D181EA030101F00041A2
:104F70004FF0000070BD50EA410606BF10461946CA
:104F800052EA430619D094EA0C0F02D150EA0136D6
:104F900013D195EA0C0F05D152EA03361CBF104617
:104FA00019460AD181EA030101F0004141F0FE41B6
:104FB00041F470014FF0000070BD41F0FE4141F43A
:104FC000780170BD70B54FF0FF0C4CF4E06C1CEA3A
:104FD00011541DBF1CEA135594EA0C0F95EA0C0FEF
:104FE00000F0A7F8A4EB050481EA030E52EA0335AA
:104FF0004FEA013100F088804FEA03334FF08055CB
:1050000045EA131343EA12634FEA022245EA1115F7
:1050100045EA10654FEA00260EF000419D4208BFA8
:10502000964244F1FD0404F5407402D25B084FEA55
:105030003202B61A65EB03055B084FEA32024FF401
:1050400080104FF4002CB6EB020E75EB030E22BF5E
:10505000B61A754640EA0C005B084FEA3202B6EB1E
:10506000020E75EB030E22BFB61A754640EA5C00CD
:105070005B084FEA3202B6EB020E75EB030E22BF5D
:10508000B61A754640EA9C005B084FEA3202B6EB5E
:10509000020E75EB030E22BFB61A754640EADC001D
:1050A00055EA060E18D04FEA051545EA16754FEA7F
:1050B00006164FEAC30343EA52734FEAC2025FEA9D
:1050C0001C1CC0D111F4801F0BD141EA00014FF02C
:1050D00000004FF0004CB6E711F4801F04BF0143FD
:1050E0000020B4F1FD0C88BFBCF5E06F3FF6AFAE19
:1050F000B5EB030C04BFB6EB020C5FEA500C50F1A9
:10510000000041EB045170BD0EF0004E4EEA11312B
:1051100014EB5C04C2BFD4EB0C0541EA045170BD32
:1051200041F480114FF0000E013C90E645EA060E76
:105130008DE60CEA135594EA0C0F08BF95EA0C0FA4
:105140003FF43BAF94EA0C0F0AD150EA01347FF4EC
:1051500034AF95EA0C0F7FF425AF104619462CE7C3
:1051600095EA0C0F06D152EA03353FF4FDAE104626
:10517000194622E750EA410618BF52EA43067FF477
:10518000C5AE50EA41047FF40DAF52EA43057FF407
:10519000EBAE12E74A0011D212F5001211D20DD572
:1051A0006FF47873B3EB62520ED44FEAC12343F02D
:1051B000004343EA505323FA02F070474FF00000D7
:1051C000704750EA013002D14FF0FF3070474FF086
:1051D000000070474FEA4102B2F1E04324BFB3F54B
:1051E000001CDCF1FE5C0DD901F0004C4FEAC0025E
:1051F0004CEA5070B2F1004F40EB830008BF20F042
:105200000100704711F0804F21D113F13872BCBFFB
:1052100001F00040704741F480114FEA5252C2F150
:105220001802C2F1200C10FA0CF320FA02F018BF99
:1052300040F001004FEAC1234FEAD32303FA0CFCEC
:1052400040EA0C0023FA02F34FEA4303CCE77FEA7B
:10525000625307D150EA01331EBF4FF0FE4040F4C5
:105260004000704701F0004040F0FE4040F4000074
:10527000704700BF80F0004002E000BF81F00041B5
:1052800042001FBF5FEA410392EA030F7FEA226CEC
:105290007FEA236C6AD04FEA1262D2EB1363C1BF7C
:1052A000D218414048404140B8BF5B42192B88BFEB
:1052B000704710F0004F40F4000020F07F4018BF0E
:1052C000404211F0004F41F4000121F07F4118BF2E
:1052D000494292EA030F3FD0A2F1010241FA03FCD6
:1052E00010EB0C00C3F1200301FA03F100F00043BE
:1052F00002D5494260EB4000B0F5000F13D3B0F186
:10530000807F06D340084FEA310102F10102FE2AF4
:1053100051D2B1F1004F40EBC25008BF20F0010064
:1053200040EA03007047490040EB000010F4000F12
:10533000A2F10102EDD1B0FA80FCACF1080CB2EBA5
:105340000C0200FA0CF0AABF00EBC2505242184304
:10535000BCBFD0401843704792F0000F81F40001A9
:1053600006BF80F400000132013BB5E74FEA41037C
:105370007FEA226C18BF7FEA236C21D092EA030FE8
:1053800004D092F0000F08BF0846704790EA010F62
:105390001CBF0020704712F07F4F04D1400028BF8F
:1053A00040F00040704712F100723CBF00F5000071
:1053B000704700F0004343F0FE4040F400007047A7
:1053C0007FEA226216BF08467FEA23630146420253
:1053D00006BF5FEA412390EA010F40F48000704766
:1053E0004FF0000304E000BF10F0004348BF40420C
:1053F0005FEA000C08BF704743F0964301464FF048
:1054000000001CE050EA010208BF70474FF00003A3
:105410000AE000BF50EA010208BF704711F00043E4
:1054200002D5404261EB41015FEA010C02BF8446B4
:105430000146002043F0B64308BFA3F18053A3F513
:105440000003BCFA8CF2083AA3EBC25310DB01FA5A
:1054500002FC634400FA02FCC2F12002BCF1004FDE
:1054600020FA02F243EB020008BF20F0010070476F
:1054700002F1200201FA02FCC2F1200250EA4C00C3
:1054800021FA02F243EB020008BF20EADC70704709
:105490004FF0FF0C1CEAD0521EBF1CEAD15392EA17
:1054A0000C0F93EA0C0F6FD01A4480EA010C4002F3
:1054B00018BF5FEA41211ED04FF0006343EA50104D
:1054C00043EA5111A0FB01310CF00040B1F5000F8F
:1054D0003EBF490041EAD3715B0040EA010062F13E
:1054E0007F02FD2A1DD8B3F1004F40EBC25008BF28
:1054F00020F00100704790F0000F0CF0004C08BF46
:1055000049024CEA502040EA51207F3AC2BFD2F112
:10551000FF0340EAC250704740F400004FF0000320
:10552000013A5DDC12F1190FDCBF00F0004070475A
:10553000C2F10002410021FA02F1C2F1200200FA98
:1055400002FC5FEA310040F1000053EA4C0308BF5F
:1055500020EADC70704792F0000F00F0004C02BFB0
:10556000400010F4000F013AF9D040EA0C0093F02B
:10557000000F01F0004C02BF490011F4000F013B85
:10558000F9D041EA0C018FE70CEAD15392EA0C0FF3
:1055900018BF93EA0C0F0AD030F0004C18BF31F05E
:1055A000004CD8D180EA010000F00040704790F034
:1055B000000F17BF90F0004F084691F0000F91F0D8
:1055C000004F14D092EA0C0F01D142020FD193EA9E
:1055D0000C0F03D14B0218BF084608D180EA010026
:1055E00000F0004040F0FE4040F40000704740F002
:1055F000FE4040F4400070474FF0FF0C1CEAD052D0
:105600001EBF1CEAD15392EA0C0F93EA0C0F69D02B
:10561000A2EB030280EA010C49024FEA402037D096
:105620004FF0805343EA111143EA10130CF000408D
:105630008B4238BF5B0042F17D024FF4000C8B427D
:1056400024BF5B1A40EA0C00B3EB510F24BFA3EB5D
:10565000510340EA5C00B3EB910F24BFA3EB91032D
:1056600040EA9C00B3EBD10F24BFA3EBD10340EA87
:10567000DC001B0118BF5FEA1C1CE0D1FD2A3FF6CD
:1056800050AF8B4240EBC25008BF20F00100704782
:105690000CF0004C4CEA50207F32C2BFD2F1FF0325
:1056A00040EAC250704740F400004FF00003013A56
:1056B00037E792F0000F00F0004C02BF400010F4FA
:1056C000000F013AF9D040EA0C0093F0000F01F00E
:1056D000004C02BF490011F4000F013BF9D041EA30
:1056E0000C0195E70CEAD15392EA0C0F08D1420263
:1056F0007FF47DAF93EA0C0F7FF470AF084676E736
:1057000093EA0C0F04D14B023FF44CAF08466EE70E
:1057100030F0004C18BF31F0004CCAD130F00042DC
:105720007FF45CAF31F000437FF43CAF5FE700BF34
:105730004FF0FF3C06E000BF4FF0010C02E000BF5D
:105740004FF0010C4DF804CD4FEA40024FEA4103FF
:105750007FEA226C18BF7FEA236C11D001B052EAB5
:10576000530C18BF90EA010F58BFB2EB030088BF7B
:10577000C81738BF6FEAE17018BF40F001007047EA
:105780007FEA226C02D15FEA402C05D17FEA236CCC
:10579000E4D15FEA412CE1D05DF8040B704700BF13
:1057A000844608466146FFE70FB5FFF7C9FF0028AA
:1057B00048BF10F1000F0FBD4DF808EDFFF7F4FFE3
:1057C0000CBF012000205DF808FB00BF4DF808ED7C
:1057D000FFF7EAFF34BF012000205DF808FB00BF9F
:1057E0004DF808EDFFF7E0FF94BF012000205DF8C1
:1057F00008FB00BF4DF808EDFFF7D2FF94BF012072
:1058000000205DF808FB00BF4DF808EDFFF7C8FF6A
:1058100034BF012000205DF808FB00BF40F20013F8
:10582000C2F2000318687047032A2DE9F0030DD86F
:105830004AB14FF0000C11F80C3000F80C300CF1AC
:10584000010C6245F7D8BDE8F003704710F0030F74
:1058500000EB020904BF04460D4608D0044611F8C7
:10586000013B04F8013B14F0030FF8D10D4611F091
:10587000030326D0C4EB090C5E42BCF1030F8A5926
:1058800015DD4FEAC308C3F104038E19DF0056F893
:10589000043F22FA08F2ACF1040C043513FA07F1C4
:1058A0000A43BCF1030F44F8042B1A46EFDCA14570
:1058B000C9D90022AB5CA3540132A3189945F9D889
:1058C000C1E7C4EB09033F2B26DD19462B6840399D
:1058D00023606A686260AB68A360EA68E2602B6973
:1058E00023616A696261AB69A361EA69E2612B6A5B
:1058F00023626A6A6262AB6AA362EA6AE2622B6B43
:1059000023636A6B6263AB6BA3630B46EA6B403540
:10591000E26340343F29D9DC0F2B0FDDC4EB0901D2
:105920002B68103923606A686260AB68A3600B461D
:10593000EA681035E26010340F29F1DC032BB6DD84
:10594000C4EB090255F8043B043A032A44F8043B2B
:10595000F8DCACE7032AC9B230B407D822B100237F
:10596000C15401339A42FBD830BC7047851810F0FF
:10597000030F08BF024605D0024602F8011B12F0D1
:10598000030FFAD1AC1A01EB01233F2C03EB0343C5
:1059900017DDA446ACF1400C13605360644693607D
:1059A000D360136153619361D36113625362936255
:1059B000D362136353639363D3634032BCF13F0FED
:1059C000E8DC0F2C0CDDC2EB050CACF1100C136005
:1059D000536064469360D3601032BCF10F0FF4DC67
:1059E000032C08DDC2EB050CACF1040C42F8043BBF
:1059F000BCF1030FF8DC9542B6D902F8011BAA42AC
:105A0000FBD3B1E70EB44FF4027100B59CB01DABEF
:105A1000ADF810106FF00041039106914FF0FF3187
:105A2000ADF8121040F2001153F8042BC2F200013D
:105A300001900590086801A91B9300F0A7F8019B4D
:105A400000221A701CB05DF804EB03B0704700BF71
:105A50000CB410B59CB01EAB4FF40274019153F816
:105A6000042B05916FF00041039106914FF0FF3137
:105A7000ADF8121001A91B93ADF8104000F086F8A4
:105A8000019B00221A701CB0BDE8104002B07047A4
:105A90002DE9F04F83B00D4691460190906817684C
:105AA00000286ED000260A68B346002E49D0AC68A4
:105AB000A64238BF344633D3A88910F4906F2FD054
:105AC0006B69296903EB4303C1EB020A03EBD37350
:105AD0004FEA63080AF101039B19424698453CBF0F
